{
  "transactions": [
    {
      "hash": "0x0f2d13a9615cea127c4224bac02a62dfb1bd31d8824ac1739d9da6ec8dc4528d",
      "transactionType": "CALL",
      "contractName": null,
      "contractAddress": "0x777a7966464a4e5684fe95025adb2ad56bdae77b",
      "function": "addToCallbackWhitelist(address,bytes4)",
      "arguments": [
        "0xC65ABF8ABA06510F777BE4bA2C29da4d93257D42",
        "0x1859caa8"
      ],
      "transaction": {
        "from": "0x81f1e947811496453dbbaea0ac2c250e056bbd96",
        "to": "0x777a7966464a4e5684fe95025adb2ad56bdae77b",
        "gas": "0x112ea",
        "value": "0x0",
        "input": "0x307a8088000000000000000000000000c65abf8aba06510f777be4ba2c29da4d93257d421859caa800000000000000000000000000000000000000000000000000000000",
        "nonce": "0x5f",
        "chainId": "0x2105"
      },
      "additionalContracts": [],
      "isFixedGasLimit": false
    },
    {
      "hash": "0x3e717a1a9571393274355616733c49bf05c26b3ed8346b10cd3ade413cf6d1b6",
      "transactionType": "CALL",
      "contractName": null,
      "contractAddress": "0x8d59e594a3e4d0647c15887cde5ecbfbe583b441",
      "function": "addToPaidCallbackWhitelist(address,bytes4)",
      "arguments": [
        "0xC65ABF8ABA06510F777BE4bA2C29da4d93257D42",
        "0xada10014"
      ],
      "transaction": {
        "from": "0x81f1e947811496453dbbaea0ac2c250e056bbd96",
        "to": "0x8d59e594a3e4d0647c15887cde5ecbfbe583b441",
        "gas": "0x11382",
        "value": "0x0",
        "input": "0xcbe5a9af000000000000000000000000c65abf8aba06510f777be4ba2c29da4d93257d42ada1001400000000000000000000000000000000000000000000000000000000",
        "nonce": "0x60",
        "chainId": "0x2105"
      },
      "additionalContracts": [],
      "isFixedGasLimit": false
    }
  ],
  "receipts": [
    {
      "status": "0x1",
      "cumulativeGasUsed": "0x93d88a",
      "logs": [
        {
          "address": "0x777a7966464a4e5684fe95025adb2ad56bdae77b",
          "topics": [
            "0x177c467a5dec0610cb3afa435a1f7efa9cd39bf81ff2273f06ae7668a00e310b",
            "0x000000000000000000000000c65abf8aba06510f777be4ba2c29da4d93257d42",
            "0x1859caa800000000000000000000000000000000000000000000000000000000"
          ],
          "data": "0x",
          "blockHash": "0xe717b89beb994e4a5fb114aabe87ec53c935f8d2eac9ccd885fbdb435bcae10a",
          "blockNumber": "0x268e3d5",
          "blockTimestamp": "0x695c248d",
          "transactionHash": "0x0f2d13a9615cea127c4224bac02a62dfb1bd31d8824ac1739d9da6ec8dc4528d",
          "transactionIndex": "0x2c",
          "logIndex": "0xd5",
          "removed": false
        }
      ],
      "logsBloom": "0x00000000040000000000000000000000000000000000000000000000000000000000000000000000000000000000000000000000000000000000000000000000000000000000000000000000000000040000008000000000000000100000000000001000000400000000000000000000000000000000000000000000004000000000000000000000000000000000000000000004000000008000000000000000000000000000000000000000000000000000000000000000000000000000000000000000000200000000000000000000000000000000000000000000000000000000000000000000000000000000000100000004000000000000000000000000",
      "type": "0x2",
      "transactionHash": "0x0f2d13a9615cea127c4224bac02a62dfb1bd31d8824ac1739d9da6ec8dc4528d",
      "transactionIndex": "0x2c",
      "blockHash": "0xe717b89beb994e4a5fb114aabe87ec53c935f8d2eac9ccd885fbdb435bcae10a",
      "blockNumber": "0x268e3d5",
      "gasUsed": "0xbbfa",
      "effectiveGasPrice": "0x319bef",
      "blobGasUsed": "0x7ef4",
      "from": "0x81f1e947811496453dbbaea0ac2c250e056bbd96",
      "to": "0x777a7966464a4e5684fe95025adb2ad56bdae77b",
      "contractAddress": null,
      "daFootprintGasScalar": "0x145",
      "l1BaseFeeScalar": "0x8dd",
      "l1BlobBaseFee": "0xa0cf5a",
      "l1BlobBaseFeeScalar": "0x101c12",
      "l1Fee": "0x6c7eebe7",
      "l1GasPrice": "0xb9e1cad",
      "l1GasUsed": "0x640"
    },
    {
      "status": "0x1",
      "cumulativeGasUsed": "0x9494ec",
      "logs": [
        {
          "address": "0x8d59e594a3e4d0647c15887cde5ecbfbe583b441",
          "topics": [
            "0x177c467a5dec0610cb3afa435a1f7efa9cd39bf81ff2273f06ae7668a00e310b",
            "0x000000000000000000000000c65abf8aba06510f777be4ba2c29da4d93257d42",
            "0xada1001400000000000000000000000000000000000000000000000000000000"
          ],
          "data": "0x",
          "blockHash": "0xe717b89beb994e4a5fb114aabe87ec53c935f8d2eac9ccd885fbdb435bcae10a",
          "blockNumber": "0x268e3d5",
          "blockTimestamp": "0x695c248d",
          "transactionHash": "0x3e717a1a9571393274355616733c49bf05c26b3ed8346b10cd3ade413cf6d1b6",
          "transactionIndex": "0x2d",
          "logIndex": "0xd6",
          "removed": false
        }
      ],
      "logsBloom": "0x00080000000000000000000000000000000000000000000000000000000000000000000000000000000000000000000000000000000000020000000000000000000000000000000000000000000000000000000000000000000000100000000000000000000400000000000000000000000000000000000000000004004000000000000000000000000000000000000000000000000800008000000000000000000000000000000000000000000000000000000004000000000000000000000000000000000200000000000000000000000000000000000000000000000000000000000000010000000000000000000000000004000000000000000000000000",
      "type": "0x2",
      "transactionHash": "0x3e717a1a9571393274355616733c49bf05c26b3ed8346b10cd3ade413cf6d1b6",
      "transactionIndex": "0x2d",
      "blockHash": "0xe717b89beb994e4a5fb114aabe87ec53c935f8d2eac9ccd885fbdb435bcae10a",
      "blockNumber": "0x268e3d5",
      "gasUsed": "0xbc62",
      "effectiveGasPrice": "0x319bef",
      "blobGasUsed": "0x7ef4",
      "from": "0x81f1e947811496453dbbaea0ac2c250e056bbd96",
      "to": "0x8d59e594a3e4d0647c15887cde5ecbfbe583b441",
      "contractAddress": null,
      "daFootprintGasScalar": "0x145",
      "l1BaseFeeScalar": "0x8dd",
      "l1BlobBaseFee": "0xa0cf5a",
      "l1BlobBaseFeeScalar": "0x101c12",
      "l1Fee": "0x6c7eebe7",
      "l1GasPrice": "0xb9e1cad",
      "l1GasUsed": "0x640"
    }
  ],
  "libraries": [],
  "pending": [],
  "returns": {},
  "timestamp": 1767646350,
  "chain": 8453,
  "commit": "f1c601a"
}