{
  "transactions": [
    {
      "hash": "0xd206f2aaa13c3a190130810ddcaa518182c25de2bba8995cbef10f5ae690f83f",
      "transactionType": "CALL",
      "contractName": null,
      "contractAddress": "0x833589fcd6edb6e08f4c7c32d4f71b54bda02913",
      "function": "approve(address,uint256)",
      "arguments": [
        "0x7c2Cc85Cb30844B81524E703f04a5eE98e3313FB",
        "5000"
      ],
      "transaction": {
        "from": "0x81f1e947811496453dbbaea0ac2c250e056bbd96",
        "to": "0x833589fcd6edb6e08f4c7c32d4f71b54bda02913",
        "gas": "0x13ca2",
        "value": "0x0",
        "input": "0x095ea7b30000000000000000000000007c2cc85cb30844b81524e703f04a5ee98e3313fb0000000000000000000000000000000000000000000000000000000000001388",
        "nonce": "0x23",
        "chainId": "0x2105"
      },
      "additionalContracts": [],
      "isFixedGasLimit": false
    },
    {
      "hash": "0x01d78ec73a85841cc22c7823133981fa9f002f8d1ba264bd4a0482e0792d3069",
      "transactionType": "CALL",
      "contractName": null,
      "contractAddress": "0x7c2cc85cb30844b81524e703f04a5ee98e3313fb",
      "function": "setImpairReserve(uint256)",
      "arguments": [
        "5000"
      ],
      "transaction": {
        "from": "0x81f1e947811496453dbbaea0ac2c250e056bbd96",
        "to": "0x7c2cc85cb30844b81524e703f04a5ee98e3313fb",
        "gas": "0x1fb3e",
        "value": "0x0",
        "input": "0x44fcb5cc0000000000000000000000000000000000000000000000000000000000001388",
        "nonce": "0x24",
        "chainId": "0x2105"
      },
      "additionalContracts": [],
      "isFixedGasLimit": false
    }
  ],
  "receipts": [
    {
      "status": "0x1",
      "cumulativeGasUsed": "0x1ef813f",
      "logs": [
        {
          "address": "0x833589fcd6edb6e08f4c7c32d4f71b54bda02913",
          "topics": [
            "0x8c5be1e5ebec7d5bd14f71427d1e84f3dd0314c0f7b2291e5b200ac8c7c3b925",
            "0x00000000000000000000000081f1e947811496453dbbaea0ac2c250e056bbd96",
            "0x0000000000000000000000007c2cc85cb30844b81524e703f04a5ee98e3313fb"
          ],
          "data": "0x0000000000000000000000000000000000000000000000000000000000001388",
          "blockHash": "0x8385163ece6dcbfbc2d05566bd8a91da7d3a4710bfb0b435c5b146f5b88ee2b2",
          "blockNumber": "0x22a3195",
          "blockTimestamp": "0x68dec00d",
          "transactionHash": "0xd206f2aaa13c3a190130810ddcaa518182c25de2bba8995cbef10f5ae690f83f",
          "transactionIndex": "0xcc",
          "logIndex": "0x242",
          "removed": false
        }
      ],
      "logsBloom": "0x00000000000000000000000000000000000004000000040000000000000000000000000000000000000000000040100000000000000000000000000000200000000000000000000000000000000000000000000000080000000000000000000000800000000000000000000000000000000000000000000000000000000000000000000000000000000000000000000000000000000000000000000200000000020000000000000000000000000000000000000000000000000000000000000000000000000000000000080000000000000000000000000000001000000000000010000000000000000000000000000000000000000000000000000000000000",
      "type": "0x2",
      "transactionHash": "0xd206f2aaa13c3a190130810ddcaa518182c25de2bba8995cbef10f5ae690f83f",
      "transactionIndex": "0xcc",
      "blockHash": "0x8385163ece6dcbfbc2d05566bd8a91da7d3a4710bfb0b435c5b146f5b88ee2b2",
      "blockNumber": "0x22a3195",
      "gasUsed": "0xd881",
      "effectiveGasPrice": "0x5c6895",
      "from": "0x81f1e947811496453dbbaea0ac2c250e056bbd96",
      "to": "0x833589fcd6edb6e08f4c7c32d4f71b54bda02913",
      "contractAddress": null,
      "l1BaseFeeScalar": "0x8dd",
      "l1BlobBaseFee": "0x1",
      "l1BlobBaseFeeScalar": "0x101c12",
      "l1Fee": "0xe33eb3cf",
      "l1GasPrice": "0x3e985296",
      "l1GasUsed": "0x640"
    },
    {
      "status": "0x1",
      "cumulativeGasUsed": "0x1f0f07c",
      "logs": [
        {
          "address": "0x833589fcd6edb6e08f4c7c32d4f71b54bda02913",
          "topics": [
            "0xddf252ad1be2c89b69c2b068fc378daa952ba7f163c4a11628f55a4df523b3ef",
            "0x00000000000000000000000081f1e947811496453dbbaea0ac2c250e056bbd96",
            "0x0000000000000000000000007c2cc85cb30844b81524e703f04a5ee98e3313fb"
          ],
          "data": "0x0000000000000000000000000000000000000000000000000000000000001388",
          "blockHash": "0x8385163ece6dcbfbc2d05566bd8a91da7d3a4710bfb0b435c5b146f5b88ee2b2",
          "blockNumber": "0x22a3195",
          "blockTimestamp": "0x68dec00d",
          "transactionHash": "0x01d78ec73a85841cc22c7823133981fa9f002f8d1ba264bd4a0482e0792d3069",
          "transactionIndex": "0xcd",
          "logIndex": "0x243",
          "removed": false
        },
        {
          "address": "0x7c2cc85cb30844b81524e703f04a5ee98e3313fb",
          "topics": [
            "0x96ef0ad874bac1a0f28dd6bb42d3cd79816d65910307ac7d95d97bb464cbb94a"
          ],
          "data": "0x0000000000000000000000000000000000000000000000000000000000001388",
          "blockHash": "0x8385163ece6dcbfbc2d05566bd8a91da7d3a4710bfb0b435c5b146f5b88ee2b2",
          "blockNumber": "0x22a3195",
          "blockTimestamp": "0x68dec00d",
          "transactionHash": "0x01d78ec73a85841cc22c7823133981fa9f002f8d1ba264bd4a0482e0792d3069",
          "transactionIndex": "0xcd",
          "logIndex": "0x244",
          "removed": false
        }
      ],
      "logsBloom": "0x00000000001000000000000000000000000004000000040000000000000000000000000000000000000000000040100000000000000000000000000000000000000000000000000000000008000000000000000000080000000000000000000010800000000000000000000000000000000000000000000000000010000000000000000000020000000000000000000000000000000000000000000200000000000000000000000000000000000000000000000000000000000000000000000000000002000000000800080002000000000000000000000000001000000000000000000000000000000000000000000000000000000000000000000000020000",
      "type": "0x2",
      "transactionHash": "0x01d78ec73a85841cc22c7823133981fa9f002f8d1ba264bd4a0482e0792d3069",
      "transactionIndex": "0xcd",
      "blockHash": "0x8385163ece6dcbfbc2d05566bd8a91da7d3a4710bfb0b435c5b146f5b88ee2b2",
      "blockNumber": "0x22a3195",
      "gasUsed": "0x16f3d",
      "effectiveGasPrice": "0x5c6895",
      "from": "0x81f1e947811496453dbbaea0ac2c250e056bbd96",
      "to": "0x7c2cc85cb30844b81524e703f04a5ee98e3313fb",
      "contractAddress": null,
      "l1BaseFeeScalar": "0x8dd",
      "l1BlobBaseFee": "0x1",
      "l1BlobBaseFeeScalar": "0x101c12",
      "l1Fee": "0xe33eb3cf",
      "l1GasPrice": "0x3e985296",
      "l1GasUsed": "0x640"
    }
  ],
  "libraries": [],
  "pending": [],
  "returns": {},
  "timestamp": 1759428622,
  "chain": 8453,
  "commit": "d790613"
}