{
  "transactions": [
    {
      "hash": "0xc156ad67a61ca2bebd6411e1a2b3fd860c37d78df164ad85ad3e0df28a08c0c3",
      "transactionType": "CALL",
      "contractName": null,
      "contractAddress": "0xf34aa523a1cf4d91a3cb1c53cb50acd6eed0b153",
      "function": "addToCallbackWhitelist(address,bytes4)",
      "arguments": [
        "0xa259331Cd3daCC5D1229beA06BAc7d957614a64E",
        "0x1859caa8"
      ],
      "transaction": {
        "from": "0x81f1e947811496453dbbaea0ac2c250e056bbd96",
        "to": "0xf34aa523a1cf4d91a3cb1c53cb50acd6eed0b153",
        "gas": "0x112ea",
        "value": "0x0",
        "input": "0x307a8088000000000000000000000000a259331cd3dacc5d1229bea06bac7d957614a64e1859caa800000000000000000000000000000000000000000000000000000000",
        "nonce": "0x16",
        "chainId": "0x32"
      },
      "additionalContracts": [],
      "isFixedGasLimit": false
    },
    {
      "hash": "0x9434b240f98a3c611c7cd9ff3b2881d69475bdfea8ed1654606b72e2109827ce",
      "transactionType": "CALL",
      "contractName": null,
      "contractAddress": "0xbe25a1086de2b587b2d20e4b14c442cda2437945",
      "function": "addToPaidCallbackWhitelist(address,bytes4)",
      "arguments": [
        "0xa259331Cd3daCC5D1229beA06BAc7d957614a64E",
        "0xada10014"
      ],
      "transaction": {
        "from": "0x81f1e947811496453dbbaea0ac2c250e056bbd96",
        "to": "0xbe25a1086de2b587b2d20e4b14c442cda2437945",
        "gas": "0x11382",
        "value": "0x0",
        "input": "0xcbe5a9af000000000000000000000000a259331cd3dacc5d1229bea06bac7d957614a64eada1001400000000000000000000000000000000000000000000000000000000",
        "nonce": "0x17",
        "chainId": "0x32"
      },
      "additionalContracts": [],
      "isFixedGasLimit": false
    }
  ],
  "receipts": [
    {
      "status": "0x1",
      "cumulativeGasUsed": "0xc1aa",
      "logs": [
        {
          "address": "0xf34aa523a1cf4d91a3cb1c53cb50acd6eed0b153",
          "topics": [
            "0x177c467a5dec0610cb3afa435a1f7efa9cd39bf81ff2273f06ae7668a00e310b",
            "0x000000000000000000000000a259331cd3dacc5d1229bea06bac7d957614a64e",
            "0x1859caa800000000000000000000000000000000000000000000000000000000"
          ],
          "data": "0x",
          "blockHash": "0x8a8cffd4ff7273a00b09e9cd9c08295c143d26d18010282169c77e0a243bf072",
          "blockNumber": "0x6111bf0",
          "transactionHash": "0xc156ad67a61ca2bebd6411e1a2b3fd860c37d78df164ad85ad3e0df28a08c0c3",
          "transactionIndex": "0x0",
          "logIndex": "0x0",
          "removed": false
        }
      ],
      "logsBloom": "0x00000000000800000000000000000000000000000000000001000000000000000000000000000000000000000000000000000000000000000000000000000000000000000000000000000000000000040000008000000000000000000000000000000000000400000000000000000000000000000000000002000000000000000000000000000000000000000000000000000000000000000000000000000000000000000000000000000000001000000000000000000000000000001000000000000000000200000000020000000000000000000000000000000000000000000000000000000000000000000000000100000004000000000000000000000000",
      "type": "0x2",
      "transactionHash": "0xc156ad67a61ca2bebd6411e1a2b3fd860c37d78df164ad85ad3e0df28a08c0c3",
      "transactionIndex": "0x0",
      "blockHash": "0x8a8cffd4ff7273a00b09e9cd9c08295c143d26d18010282169c77e0a243bf072",
      "blockNumber": "0x6111bf0",
      "gasUsed": "0xc1aa",
      "effectiveGasPrice": "0x35c8ac460",
      "from": "0x81f1e947811496453dbbaea0ac2c250e056bbd96",
      "to": "0xf34aa523a1cf4d91a3cb1c53cb50acd6eed0b153",
      "contractAddress": null
    },
    {
      "status": "0x1",
      "cumulativeGasUsed": "0x18388",
      "logs": [
        {
          "address": "0xbe25a1086de2b587b2d20e4b14c442cda2437945",
          "topics": [
            "0x177c467a5dec0610cb3afa435a1f7efa9cd39bf81ff2273f06ae7668a00e310b",
            "0x000000000000000000000000a259331cd3dacc5d1229bea06bac7d957614a64e",
            "0xada1001400000000000000000000000000000000000000000000000000000000"
          ],
          "data": "0x",
          "blockHash": "0x8a8cffd4ff7273a00b09e9cd9c08295c143d26d18010282169c77e0a243bf072",
          "blockNumber": "0x6111bf0",
          "transactionHash": "0x9434b240f98a3c611c7cd9ff3b2881d69475bdfea8ed1654606b72e2109827ce",
          "transactionIndex": "0x1",
          "logIndex": "0x1",
          "removed": false
        }
      ],
      "logsBloom": "0x00080020000000000000000000000000000000000000000001000000000000000000000000000000000000000000000000000000000000020000000000000000000000000000000000000000000000000000000000000000000000000000000000000000000400000000000000000000002000002000000002000000000000000000000000000000000000000000000000000000000000000000000000000000000000000000000000000000000000000000000000000000000000001000000000000000000200000000000000000000000000000000000000000000000000000000000000010000000000000000000000000004000000000000000000000000",
      "type": "0x2",
      "transactionHash": "0x9434b240f98a3c611c7cd9ff3b2881d69475bdfea8ed1654606b72e2109827ce",
      "transactionIndex": "0x1",
      "blockHash": "0x8a8cffd4ff7273a00b09e9cd9c08295c143d26d18010282169c77e0a243bf072",
      "blockNumber": "0x6111bf0",
      "gasUsed": "0xc1de",
      "effectiveGasPrice": "0x35c8ac460",
      "from": "0x81f1e947811496453dbbaea0ac2c250e056bbd96",
      "to": "0xbe25a1086de2b587b2d20e4b14c442cda2437945",
      "contractAddress": null
    }
  ],
  "libraries": [],
  "pending": [],
  "returns": {},
  "timestamp": 1776952889577,
  "chain": 50,
  "commit": "6c93418"
}