{
  "transactions": [
    {
      "hash": "0x78f7903efd8b44c0b7c8e697b7072329877eaafa5b0d68530c1c2d1e17819282",
      "transactionType": "CALL",
      "contractName": null,
      "contractAddress": "0xf34aa523a1cf4d91a3cb1c53cb50acd6eed0b153",
      "function": "addToCallbackWhitelist(address,bytes4)",
      "arguments": [
        "0x59973c8dBb88C7D3f5480175Cef253C771cCB3EF",
        "0x1859caa8"
      ],
      "transaction": {
        "from": "0x81f1e947811496453dbbaea0ac2c250e056bbd96",
        "to": "0xf34aa523a1cf4d91a3cb1c53cb50acd6eed0b153",
        "gas": "0x112ea",
        "value": "0x0",
        "input": "0x307a808800000000000000000000000059973c8dbb88c7d3f5480175cef253c771ccb3ef1859caa800000000000000000000000000000000000000000000000000000000",
        "nonce": "0x14",
        "chainId": "0x32"
      },
      "additionalContracts": [],
      "isFixedGasLimit": false
    },
    {
      "hash": "0x0647a44e8a3431e8e784b15995920ee9e148932fa04e98d4edbc6acbdbe7e462",
      "transactionType": "CALL",
      "contractName": null,
      "contractAddress": "0xbe25a1086de2b587b2d20e4b14c442cda2437945",
      "function": "addToPaidCallbackWhitelist(address,bytes4)",
      "arguments": [
        "0x59973c8dBb88C7D3f5480175Cef253C771cCB3EF",
        "0xada10014"
      ],
      "transaction": {
        "from": "0x81f1e947811496453dbbaea0ac2c250e056bbd96",
        "to": "0xbe25a1086de2b587b2d20e4b14c442cda2437945",
        "gas": "0x11382",
        "value": "0x0",
        "input": "0xcbe5a9af00000000000000000000000059973c8dbb88c7d3f5480175cef253c771ccb3efada1001400000000000000000000000000000000000000000000000000000000",
        "nonce": "0x15",
        "chainId": "0x32"
      },
      "additionalContracts": [],
      "isFixedGasLimit": false
    }
  ],
  "receipts": [
    {
      "status": "0x1",
      "cumulativeGasUsed": "0xc1aa",
      "logs": [
        {
          "address": "0xf34aa523a1cf4d91a3cb1c53cb50acd6eed0b153",
          "topics": [
            "0x177c467a5dec0610cb3afa435a1f7efa9cd39bf81ff2273f06ae7668a00e310b",
            "0x00000000000000000000000059973c8dbb88c7d3f5480175cef253c771ccb3ef",
            "0x1859caa800000000000000000000000000000000000000000000000000000000"
          ],
          "data": "0x",
          "blockHash": "0x20006d67eed3fe45eec78b3b0ee7c75f5b95865b015de27c87f0c9f64707564d",
          "blockNumber": "0x6111ac6",
          "transactionHash": "0x0647a44e8a3431e8e784b15995920ee9e148932fa04e98d4edbc6acbdbe7e462",
          "transactionIndex": "0x0",
          "logIndex": "0x0",
          "removed": false
        }
      ],
      "logsBloom": "0x00000000000800000000000000000000000000000000000000000000000000000000000000000000000000000000000000000000000000000000000000000000000000000000000000000000000000040000008000000000000000000000000000000000000400000000000000000000000000000000000000000000000000000000000000000000000000000000000000000000000000000000000000000000000000000000000000000000001000000000000000000000000000000000000000000000000200020000020000000000000000000000000000000000000000100000000000000000000000800000000100000004000000000000000000000000",
      "type": "0x2",
      "transactionHash": "0x0647a44e8a3431e8e784b15995920ee9e148932fa04e98d4edbc6acbdbe7e462",
      "transactionIndex": "0x0",
      "blockHash": "0x20006d67eed3fe45eec78b3b0ee7c75f5b95865b015de27c87f0c9f64707564d",
      "blockNumber": "0x6111ac6",
      "gasUsed": "0xc1aa",
      "effectiveGasPrice": "0x37e11d600",
      "from": "0x81f1e947811496453dbbaea0ac2c250e056bbd96",
      "to": "0xf34aa523a1cf4d91a3cb1c53cb50acd6eed0b153",
      "contractAddress": null
    },
    {
      "status": "0x1",
      "cumulativeGasUsed": "0x18388",
      "logs": [
        {
          "address": "0xbe25a1086de2b587b2d20e4b14c442cda2437945",
          "topics": [
            "0x177c467a5dec0610cb3afa435a1f7efa9cd39bf81ff2273f06ae7668a00e310b",
            "0x00000000000000000000000059973c8dbb88c7d3f5480175cef253c771ccb3ef",
            "0xada1001400000000000000000000000000000000000000000000000000000000"
          ],
          "data": "0x",
          "blockHash": "0x20006d67eed3fe45eec78b3b0ee7c75f5b95865b015de27c87f0c9f64707564d",
          "blockNumber": "0x6111ac6",
          "transactionHash": "0x78f7903efd8b44c0b7c8e697b7072329877eaafa5b0d68530c1c2d1e17819282",
          "transactionIndex": "0x1",
          "logIndex": "0x1",
          "removed": false
        }
      ],
      "logsBloom": "0x00080020000000000000000000000000000000000000000000000000000000000000000000000000000000000000000000000000000000020000000000000000000000000000000000000000000000000000000000000000000000000000000000000000000400000000000000000000002000002000000000000000000000000000000000000000000000000000000000000000000000000000000000000000000000000000000000000000000000000000000000000000000000000000000000000000000200020000000000000000000000000000000000000000000000100000000000010000000000800000000000000004000000000000000000000000",
      "type": "0x2",
      "transactionHash": "0x78f7903efd8b44c0b7c8e697b7072329877eaafa5b0d68530c1c2d1e17819282",
      "transactionIndex": "0x1",
      "blockHash": "0x20006d67eed3fe45eec78b3b0ee7c75f5b95865b015de27c87f0c9f64707564d",
      "blockNumber": "0x6111ac6",
      "gasUsed": "0xc1de",
      "effectiveGasPrice": "0x37e11d600",
      "from": "0x81f1e947811496453dbbaea0ac2c250e056bbd96",
      "to": "0xbe25a1086de2b587b2d20e4b14c442cda2437945",
      "contractAddress": null
    }
  ],
  "libraries": [],
  "pending": [],
  "returns": {},
  "timestamp": 1776952292366,
  "chain": 50,
  "commit": "6c93418"
}