{
  "transactions": [
    {
      "hash": "0x143159e95ad061224afbd90b22f73cf10f51b52355f32c54cc9766ae5c4ec457",
      "transactionType": "CALL",
      "contractName": null,
      "contractAddress": "0x0d9ef9d436ff341e500360a6b5e5750ab85bccb6",
      "function": "addToPaidCallbackWhitelist(address,bytes4)",
      "arguments": [
        "0x1E1d535a41515D3D2c29C1524C825236D67733E1",
        "0xada10014"
      ],
      "transaction": {
        "from": "0x81f1e947811496453dbbaea0ac2c250e056bbd96",
        "to": "0x0d9ef9d436ff341e500360a6b5e5750ab85bccb6",
        "gas": "0x98d4",
        "value": "0x0",
        "input": "0xcbe5a9af0000000000000000000000001e1d535a41515d3d2c29c1524c825236d67733e1ada1001400000000000000000000000000000000000000000000000000000000",
        "nonce": "0x71",
        "chainId": "0xaa36a7"
      },
      "additionalContracts": [],
      "isFixedGasLimit": false
    }
  ],
  "receipts": [
    {
      "status": "0x1",
      "cumulativeGasUsed": "0x13668da",
      "logs": [
        {
          "address": "0x0d9ef9d436ff341e500360a6b5e5750ab85bccb6",
          "topics": [
            "0x177c467a5dec0610cb3afa435a1f7efa9cd39bf81ff2273f06ae7668a00e310b",
            "0x0000000000000000000000001e1d535a41515d3d2c29c1524c825236d67733e1",
            "0xada1001400000000000000000000000000000000000000000000000000000000"
          ],
          "data": "0x",
          "blockHash": "0xc119a13196feeeab25e094712aef3fe14f99535e9e7feb4129234863babf00a8",
          "blockNumber": "0x9676b7",
          "blockTimestamp": "0x6942d530",
          "transactionHash": "0x143159e95ad061224afbd90b22f73cf10f51b52355f32c54cc9766ae5c4ec457",
          "transactionIndex": "0x66",
          "logIndex": "0x322",
          "removed": false
        }
      ],
      "logsBloom": "0x00080000000000000000000000100000000000000000000000000000080000000000000000000000000000000000000000000000000000020000000000000000000000000000000000000000000000000000000000000000000000000000000000000000000400000000000000000000000000000000000000000000000000000020000000000000000000000001004000000000000000000000000000000000000000000000000000000000000000000000000000000000000000000000000000000000000200000000000000000000000040000000000000000000000000000000000000010000000000000000000000000004000000000000000000000000",
      "type": "0x2",
      "transactionHash": "0x143159e95ad061224afbd90b22f73cf10f51b52355f32c54cc9766ae5c4ec457",
      "transactionIndex": "0x66",
      "blockHash": "0xc119a13196feeeab25e094712aef3fe14f99535e9e7feb4129234863babf00a8",
      "blockNumber": "0x9676b7",
      "gasUsed": "0x6ea6",
      "effectiveGasPrice": "0x125183179",
      "from": "0x81f1e947811496453dbbaea0ac2c250e056bbd96",
      "to": "0x0d9ef9d436ff341e500360a6b5e5750ab85bccb6",
      "contractAddress": null
    }
  ],
  "libraries": [],
  "pending": [],
  "returns": {},
  "timestamp": 1765987633,
  "chain": 11155111,
  "commit": "ed53e75"
}