{
  "transactions": [
    {
      "hash": "0x3b46b97b331cf83775d7eb52999ae34a813afa990616e3b66584e1a52fee78ae",
      "transactionType": "CALL",
      "contractName": null,
      "contractAddress": "0xf1735d81d174fde0536178a0a2a0e0ba366dc231",
      "function": "addToCallbackWhitelist(address,bytes4)",
      "arguments": [
        "0x1E1d535a41515D3D2c29C1524C825236D67733E1",
        "0x1859caa8"
      ],
      "transaction": {
        "from": "0x81f1e947811496453dbbaea0ac2c250e056bbd96",
        "to": "0xf1735d81d174fde0536178a0a2a0e0ba366dc231",
        "gas": "0x10380",
        "value": "0x0",
        "input": "0x307a80880000000000000000000000001e1d535a41515d3d2c29c1524c825236d67733e11859caa800000000000000000000000000000000000000000000000000000000",
        "nonce": "0x55",
        "chainId": "0xaa36a7"
      },
      "additionalContracts": [],
      "isFixedGasLimit": false
    }
  ],
  "receipts": [
    {
      "status": "0x1",
      "cumulativeGasUsed": "0xebf453",
      "logs": [
        {
          "address": "0xf1735d81d174fde0536178a0a2a0e0ba366dc231",
          "topics": [
            "0x177c467a5dec0610cb3afa435a1f7efa9cd39bf81ff2273f06ae7668a00e310b",
            "0x0000000000000000000000001e1d535a41515d3d2c29c1524c825236d67733e1",
            "0x1859caa800000000000000000000000000000000000000000000000000000000"
          ],
          "data": "0x",
          "blockHash": "0x051f83567d73d8d5de2293ca10d272d41604e17e3d174232d30e664e41e3508b",
          "blockNumber": "0x929c01",
          "blockTimestamp": "0x69136824",
          "transactionHash": "0x3b46b97b331cf83775d7eb52999ae34a813afa990616e3b66584e1a52fee78ae",
          "transactionIndex": "0x5b",
          "logIndex": "0xb5",
          "removed": false
        }
      ],
      "logsBloom": "0x00000000000000000000000000100000000000000000000000000000000000000000000000000000000000000000000000000000000000000000000000000000000000000000000200000000000000040000008000000000000000000000000000000000000400000000000000010000000000000000000000000000000000000020000000000000000000000000004000000000000000000000000000400000000000000000000000000000000000000000000000000000000000000000000000000000000200000000000000000000000000000000000000000000000000000000000000000000000000000000000100000004000000000000000000000000",
      "type": "0x2",
      "transactionHash": "0x3b46b97b331cf83775d7eb52999ae34a813afa990616e3b66584e1a52fee78ae",
      "transactionIndex": "0x5b",
      "blockHash": "0x051f83567d73d8d5de2293ca10d272d41604e17e3d174232d30e664e41e3508b",
      "blockNumber": "0x929c01",
      "gasUsed": "0xbbe0",
      "effectiveGasPrice": "0xf4246",
      "from": "0x81f1e947811496453dbbaea0ac2c250e056bbd96",
      "to": "0xf1735d81d174fde0536178a0a2a0e0ba366dc231",
      "contractAddress": null
    }
  ],
  "libraries": [],
  "pending": [],
  "returns": {},
  "timestamp": 1762879524,
  "chain": 11155111,
  "commit": "c652f67"
}