{
  "transactions": [
    {
      "hash": "0x164127443a79f0185fa75f92974495e90c49a0fd9bb2905a377505213f40d140",
      "transactionType": "CALL",
      "contractName": null,
      "contractAddress": "0x4d6a66d32cf34270e4cc9c9f201ca4db650be3f2",
      "function": "addToCallbackWhitelist(address,bytes4)",
      "arguments": [
        "0x59973c8dBb88C7D3f5480175Cef253C771cCB3EF",
        "0x1859caa8"
      ],
      "transaction": {
        "from": "0x81f1e947811496453dbbaea0ac2c250e056bbd96",
        "to": "0x4d6a66d32cf34270e4cc9c9f201ca4db650be3f2",
        "gas": "0x112ea",
        "value": "0x0",
        "input": "0x307a808800000000000000000000000059973c8dbb88c7d3f5480175cef253c771ccb3ef1859caa800000000000000000000000000000000000000000000000000000000",
        "nonce": "0x73",
        "chainId": "0xaa36a7"
      },
      "additionalContracts": [],
      "isFixedGasLimit": false
    },
    {
      "hash": "0x32500d7ed03a5f5e939f166954b63e2579a9cb7e98b119f09c6ea60c8b546075",
      "transactionType": "CALL",
      "contractName": null,
      "contractAddress": "0x0d9ef9d436ff341e500360a6b5e5750ab85bccb6",
      "function": "addToPaidCallbackWhitelist(address,bytes4)",
      "arguments": [
        "0x59973c8dBb88C7D3f5480175Cef253C771cCB3EF",
        "0xada10014"
      ],
      "transaction": {
        "from": "0x81f1e947811496453dbbaea0ac2c250e056bbd96",
        "to": "0x0d9ef9d436ff341e500360a6b5e5750ab85bccb6",
        "gas": "0x11382",
        "value": "0x0",
        "input": "0xcbe5a9af00000000000000000000000059973c8dbb88c7d3f5480175cef253c771ccb3efada1001400000000000000000000000000000000000000000000000000000000",
        "nonce": "0x74",
        "chainId": "0xaa36a7"
      },
      "additionalContracts": [],
      "isFixedGasLimit": false
    }
  ],
  "receipts": [
    {
      "status": "0x1",
      "cumulativeGasUsed": "0x25d43af",
      "logs": [
        {
          "address": "0x4d6a66d32cf34270e4cc9c9f201ca4db650be3f2",
          "topics": [
            "0x177c467a5dec0610cb3afa435a1f7efa9cd39bf81ff2273f06ae7668a00e310b",
            "0x00000000000000000000000059973c8dbb88c7d3f5480175cef253c771ccb3ef",
            "0x1859caa800000000000000000000000000000000000000000000000000000000"
          ],
          "data": "0x",
          "blockHash": "0xba81a019945acd68340a558cd5e457b4917d5a739d2708d5e5142aa99d3479a4",
          "blockNumber": "0x967843",
          "blockTimestamp": "0x6942e8f8",
          "transactionHash": "0x164127443a79f0185fa75f92974495e90c49a0fd9bb2905a377505213f40d140",
          "transactionIndex": "0x93",
          "logIndex": "0x5ec",
          "removed": false
        }
      ],
      "logsBloom": "0x00000000000000000000000000000000000000000000000000000000000000000000000000000000000000000000000000000000000000000000000000000000000000000000000000000000000000040000008000000000000000000000000000000000000400000000000000000000000000000000000000000000000000000000000000000000000040000000000000000000000000000000000001000000000000000000000000000000000000000000000000000000000000000000000000000000000200020000000000000004000000000000000000000000000000100000000000000000000000800000000100000004000000000000000000000000",
      "type": "0x2",
      "transactionHash": "0x164127443a79f0185fa75f92974495e90c49a0fd9bb2905a377505213f40d140",
      "transactionIndex": "0x93",
      "blockHash": "0xba81a019945acd68340a558cd5e457b4917d5a739d2708d5e5142aa99d3479a4",
      "blockNumber": "0x967843",
      "gasUsed": "0xbbfa",
      "effectiveGasPrice": "0x132b2667b9",
      "from": "0x81f1e947811496453dbbaea0ac2c250e056bbd96",
      "to": "0x4d6a66d32cf34270e4cc9c9f201ca4db650be3f2",
      "contractAddress": null
    },
    {
      "status": "0x1",
      "cumulativeGasUsed": "0x25e0011",
      "logs": [
        {
          "address": "0x0d9ef9d436ff341e500360a6b5e5750ab85bccb6",
          "topics": [
            "0x177c467a5dec0610cb3afa435a1f7efa9cd39bf81ff2273f06ae7668a00e310b",
            "0x00000000000000000000000059973c8dbb88c7d3f5480175cef253c771ccb3ef",
            "0xada1001400000000000000000000000000000000000000000000000000000000"
          ],
          "data": "0x",
          "blockHash": "0xba81a019945acd68340a558cd5e457b4917d5a739d2708d5e5142aa99d3479a4",
          "blockNumber": "0x967843",
          "blockTimestamp": "0x6942e8f8",
          "transactionHash": "0x32500d7ed03a5f5e939f166954b63e2579a9cb7e98b119f09c6ea60c8b546075",
          "transactionIndex": "0x94",
          "logIndex": "0x5ed",
          "removed": false
        }
      ],
      "logsBloom": "0x00080000000000000000000000000000000000000000000000000000080000000000000000000000000000000000000000000000000000020000000000000000000000000000000000000000000000000000000000000000000000000000000000000000000400000000000000000000000000000000000000000000000000000000000000000000000000000001000000000000000000000000000000000000000000000000000000000000000000000000000000000000000000000000000000000000000200020000000000000000000040000000000000000000000000100000000000010000000000800000000000000004000000000000000000000000",
      "type": "0x2",
      "transactionHash": "0x32500d7ed03a5f5e939f166954b63e2579a9cb7e98b119f09c6ea60c8b546075",
      "transactionIndex": "0x94",
      "blockHash": "0xba81a019945acd68340a558cd5e457b4917d5a739d2708d5e5142aa99d3479a4",
      "blockNumber": "0x967843",
      "gasUsed": "0xbc62",
      "effectiveGasPrice": "0x132b2667b9",
      "from": "0x81f1e947811496453dbbaea0ac2c250e056bbd96",
      "to": "0x0d9ef9d436ff341e500360a6b5e5750ab85bccb6",
      "contractAddress": null
    }
  ],
  "libraries": [],
  "pending": [],
  "returns": {},
  "timestamp": 1765992696,
  "chain": 11155111,
  "commit": "ed53e75"
}