{
  "transactions": [
    {
      "hash": "0x40e119838eae4bab3f8bbfca7add1ce82c6f6ebb85321181da1a5420066b8cb7",
      "transactionType": "CALL",
      "contractName": null,
      "contractAddress": "0x4d6a66d32cf34270e4cc9c9f201ca4db650be3f2",
      "function": "addToCallbackWhitelist(address,bytes4)",
      "arguments": [
        "0xA5E94F122d421c9579a5cb1E687F55E109Ba270b",
        "0x1859caa8"
      ],
      "transaction": {
        "from": "0x81f1e947811496453dbbaea0ac2c250e056bbd96",
        "to": "0x4d6a66d32cf34270e4cc9c9f201ca4db650be3f2",
        "gas": "0x112ea",
        "value": "0x0",
        "input": "0x307a8088000000000000000000000000a5e94f122d421c9579a5cb1e687f55e109ba270b1859caa800000000000000000000000000000000000000000000000000000000",
        "nonce": "0x77",
        "chainId": "0xaa36a7"
      },
      "additionalContracts": [],
      "isFixedGasLimit": false
    },
    {
      "hash": "0xd20e9171dcb3dd9fbeae89da21e7418c2cfb4c9c02a611a654716f420c4b1009",
      "transactionType": "CALL",
      "contractName": null,
      "contractAddress": "0x0d9ef9d436ff341e500360a6b5e5750ab85bccb6",
      "function": "addToPaidCallbackWhitelist(address,bytes4)",
      "arguments": [
        "0xA5E94F122d421c9579a5cb1E687F55E109Ba270b",
        "0xada10014"
      ],
      "transaction": {
        "from": "0x81f1e947811496453dbbaea0ac2c250e056bbd96",
        "to": "0x0d9ef9d436ff341e500360a6b5e5750ab85bccb6",
        "gas": "0x11382",
        "value": "0x0",
        "input": "0xcbe5a9af000000000000000000000000a5e94f122d421c9579a5cb1e687f55e109ba270bada1001400000000000000000000000000000000000000000000000000000000",
        "nonce": "0x78",
        "chainId": "0xaa36a7"
      },
      "additionalContracts": [],
      "isFixedGasLimit": false
    }
  ],
  "receipts": [
    {
      "status": "0x1",
      "cumulativeGasUsed": "0x543396",
      "logs": [
        {
          "address": "0x4d6a66d32cf34270e4cc9c9f201ca4db650be3f2",
          "topics": [
            "0x177c467a5dec0610cb3afa435a1f7efa9cd39bf81ff2273f06ae7668a00e310b",
            "0x000000000000000000000000a5e94f122d421c9579a5cb1e687f55e109ba270b",
            "0x1859caa800000000000000000000000000000000000000000000000000000000"
          ],
          "data": "0x",
          "blockHash": "0x4795728ad5c1d99fb7a9e6caeaa6c78d4dc4f70a7d94ed6d2cd0439b6e026389",
          "blockNumber": "0x987901",
          "blockTimestamp": "0x695d79d4",
          "transactionHash": "0x40e119838eae4bab3f8bbfca7add1ce82c6f6ebb85321181da1a5420066b8cb7",
          "transactionIndex": "0x31",
          "logIndex": "0x2b",
          "removed": false
        }
      ],
      "logsBloom": "0x00000000000000000000000000000000000000000000000000000000000000000000800000000000000000000000000000000000000000000000000000000000000000000000000000000000000000040000008000000000000000000000000000000000000400000000000000000000000000000000000000000000000000000000000000000000000040000000000000000000000000000000000001000000000000000000000000000000000000000100000000000000000000000000000000000000000200000000000000000004000000000000000000000000000000000000000000000000000000000000000100000004000000000002000000000000",
      "type": "0x2",
      "transactionHash": "0x40e119838eae4bab3f8bbfca7add1ce82c6f6ebb85321181da1a5420066b8cb7",
      "transactionIndex": "0x31",
      "blockHash": "0x4795728ad5c1d99fb7a9e6caeaa6c78d4dc4f70a7d94ed6d2cd0439b6e026389",
      "blockNumber": "0x987901",
      "gasUsed": "0xbbfa",
      "effectiveGasPrice": "0xf424d",
      "from": "0x81f1e947811496453dbbaea0ac2c250e056bbd96",
      "to": "0x4d6a66d32cf34270e4cc9c9f201ca4db650be3f2",
      "contractAddress": null
    },
    {
      "status": "0x1",
      "cumulativeGasUsed": "0x54eff8",
      "logs": [
        {
          "address": "0x0d9ef9d436ff341e500360a6b5e5750ab85bccb6",
          "topics": [
            "0x177c467a5dec0610cb3afa435a1f7efa9cd39bf81ff2273f06ae7668a00e310b",
            "0x000000000000000000000000a5e94f122d421c9579a5cb1e687f55e109ba270b",
            "0xada1001400000000000000000000000000000000000000000000000000000000"
          ],
          "data": "0x",
          "blockHash": "0x4795728ad5c1d99fb7a9e6caeaa6c78d4dc4f70a7d94ed6d2cd0439b6e026389",
          "blockNumber": "0x987901",
          "blockTimestamp": "0x695d79d4",
          "transactionHash": "0xd20e9171dcb3dd9fbeae89da21e7418c2cfb4c9c02a611a654716f420c4b1009",
          "transactionIndex": "0x32",
          "logIndex": "0x2c",
          "removed": false
        }
      ],
      "logsBloom": "0x00080000000000000000000000000000000000000000000000000000080000000000800000000000000000000000000000000000000000020000000000000000000000000000000000000000000000000000000000000000000000000000000000000000000400000000000000000000000000000000000000000000000000000000000000000000000000000001000000000000000000000000000000000000000000000000000000000000000000000100000000000000000000000000000000000000000200000000000000000000000040000000000000000000000000000000000000010000000000000000000000000004000000000002000000000000",
      "type": "0x2",
      "transactionHash": "0xd20e9171dcb3dd9fbeae89da21e7418c2cfb4c9c02a611a654716f420c4b1009",
      "transactionIndex": "0x32",
      "blockHash": "0x4795728ad5c1d99fb7a9e6caeaa6c78d4dc4f70a7d94ed6d2cd0439b6e026389",
      "blockNumber": "0x987901",
      "gasUsed": "0xbc62",
      "effectiveGasPrice": "0xf424d",
      "from": "0x81f1e947811496453dbbaea0ac2c250e056bbd96",
      "to": "0x0d9ef9d436ff341e500360a6b5e5750ab85bccb6",
      "contractAddress": null
    }
  ],
  "libraries": [],
  "pending": [],
  "returns": {},
  "timestamp": 1767733716,
  "chain": 11155111,
  "commit": "a2b5d8e"
}