{
  "transactions": [
    {
      "hash": "0x1d4b63106e3e3f361e27ce75dbc178798f56df37efeac8a6d0e9d010cccb5521",
      "transactionType": "CALL",
      "contractName": null,
      "contractAddress": "0x8948a00fac01110210f97f8f9fa107aa07e6f46c",
      "function": "addToCallbackWhitelist(address,bytes4)",
      "arguments": [
        "0x74C62F475464a03A462578D65629240B34221C1B",
        "0x1859caa8"
      ],
      "transaction": {
        "from": "0x81f1e947811496453dbbaea0ac2c250e056bbd96",
        "to": "0x8948a00fac01110210f97f8f9fa107aa07e6f46c",
        "gas": "0x112c5",
        "value": "0x0",
        "input": "0x307a808800000000000000000000000074c62f475464a03a462578d65629240b34221c1b1859caa800000000000000000000000000000000000000000000000000000000",
        "nonce": "0x37",
        "chainId": "0xaa36a7"
      },
      "additionalContracts": [],
      "isFixedGasLimit": false
    }
  ],
  "receipts": [
    {
      "status": "0x1",
      "cumulativeGasUsed": "0x112bde0",
      "logs": [
        {
          "address": "0x8948a00fac01110210f97f8f9fa107aa07e6f46c",
          "topics": [
            "0x177c467a5dec0610cb3afa435a1f7efa9cd39bf81ff2273f06ae7668a00e310b",
            "0x00000000000000000000000074c62f475464a03a462578d65629240b34221c1b",
            "0x1859caa800000000000000000000000000000000000000000000000000000000"
          ],
          "data": "0x",
          "blockHash": "0xf9ab0715cc1661818e9edd1796a6dcb8b825c1d299ef0b7d5485843993806c8c",
          "blockNumber": "0x905680",
          "blockTimestamp": "0x68f78fac",
          "transactionHash": "0x1d4b63106e3e3f361e27ce75dbc178798f56df37efeac8a6d0e9d010cccb5521",
          "transactionIndex": "0x69",
          "logIndex": "0x87",
          "removed": false
        }
      ],
      "logsBloom": "0x00000000000000000000000000000000000000000000000000000000000000000000000000000000000000000000000000000000000000000000000000000000000000000000000000000000000000040000008000008000000000000000000000000000000400000000000000000000000000000000000400000000000000000000000000000000000000000000000000000000000000000000000001000000000000000000020000000000000000000000000000000000000000000000000000000000000200010000000000000000000000000000000000000000010000000000000000000000000000000000000100000004000000000000000000000000",
      "type": "0x2",
      "transactionHash": "0x1d4b63106e3e3f361e27ce75dbc178798f56df37efeac8a6d0e9d010cccb5521",
      "transactionIndex": "0x69",
      "blockHash": "0xf9ab0715cc1661818e9edd1796a6dcb8b825c1d299ef0b7d5485843993806c8c",
      "blockNumber": "0x905680",
      "gasUsed": "0xbbe1",
      "effectiveGasPrice": "0x106c66",
      "from": "0x81f1e947811496453dbbaea0ac2c250e056bbd96",
      "to": "0x8948a00fac01110210f97f8f9fa107aa07e6f46c",
      "contractAddress": null
    }
  ],
  "libraries": [],
  "pending": [],
  "returns": {},
  "timestamp": 1761054634,
  "chain": 11155111,
  "commit": "76a659c"
}