{
  "transactions": [
    {
      "hash": "0x15a64d5f3262babd6653ea32e56c221f4b64796ac9437eb0bc03f019cb1450d6",
      "transactionType": "CALL",
      "contractName": null,
      "contractAddress": "0x8948a00fac01110210f97f8f9fa107aa07e6f46c",
      "function": "addToCallbackWhitelist(address,bytes4)",
      "arguments": [
        "0xd4116f515A6958da851080B390DDE4B81f408978",
        "0x1859caa8"
      ],
      "transaction": {
        "from": "0x81f1e947811496453dbbaea0ac2c250e056bbd96",
        "to": "0x8948a00fac01110210f97f8f9fa107aa07e6f46c",
        "gas": "0x112c5",
        "value": "0x0",
        "input": "0x307a8088000000000000000000000000d4116f515a6958da851080b390dde4b81f4089781859caa800000000000000000000000000000000000000000000000000000000",
        "nonce": "0x40",
        "chainId": "0xaa36a7"
      },
      "additionalContracts": [],
      "isFixedGasLimit": false
    }
  ],
  "receipts": [
    {
      "status": "0x1",
      "cumulativeGasUsed": "0xb3db21",
      "logs": [
        {
          "address": "0x8948a00fac01110210f97f8f9fa107aa07e6f46c",
          "topics": [
            "0x177c467a5dec0610cb3afa435a1f7efa9cd39bf81ff2273f06ae7668a00e310b",
            "0x000000000000000000000000d4116f515a6958da851080b390dde4b81f408978",
            "0x1859caa800000000000000000000000000000000000000000000000000000000"
          ],
          "data": "0x",
          "blockHash": "0xe1c30e1c96987402cbf175224e91b081394a75c9db1439f6534ec794f5368126",
          "blockNumber": "0x909614",
          "blockTimestamp": "0x68fa9db0",
          "transactionHash": "0x15a64d5f3262babd6653ea32e56c221f4b64796ac9437eb0bc03f019cb1450d6",
          "transactionIndex": "0x77",
          "logIndex": "0x64",
          "removed": false
        }
      ],
      "logsBloom": "0x00000000000000000000000000000000000000000000000000000000000000000000000000000000000000000000000000000000000000000000000000000000000000000000000000000000000000040000008000000000000000000000000000000000000400000000000000000000000000000000000400000000000000000000000000000000000000000000000000000000000000000000000001080000000000000000000000000000000000000100000000000000000000000000000000000000000200000000000000000000000000000000000000000000010000000000000000000000000000000000000100000004000000000000000008000000",
      "type": "0x2",
      "transactionHash": "0x15a64d5f3262babd6653ea32e56c221f4b64796ac9437eb0bc03f019cb1450d6",
      "transactionIndex": "0x77",
      "blockHash": "0xe1c30e1c96987402cbf175224e91b081394a75c9db1439f6534ec794f5368126",
      "blockNumber": "0x909614",
      "gasUsed": "0xbbe1",
      "effectiveGasPrice": "0xf4240",
      "from": "0x81f1e947811496453dbbaea0ac2c250e056bbd96",
      "to": "0x8948a00fac01110210f97f8f9fa107aa07e6f46c",
      "contractAddress": null
    }
  ],
  "libraries": [],
  "pending": [],
  "returns": {},
  "timestamp": 1761254832,
  "chain": 11155111,
  "commit": "44d957d"
}