{
  "transactions": [
    {
      "hash": "0x0eb70d65a1eb7fd28cf47e4867c16690da1a4e501380e9ca51f9b62183596f3b",
      "transactionType": "CALL",
      "contractName": null,
      "contractAddress": "0xf1735d81d174fde0536178a0a2a0e0ba366dc231",
      "function": "addToCallbackWhitelist(address,bytes4)",
      "arguments": [
        "0x1E1d535a41515D3D2c29C1524C825236D67733E1",
        "0x1859caa8"
      ],
      "transaction": {
        "from": "0x81f1e947811496453dbbaea0ac2c250e056bbd96",
        "to": "0xf1735d81d174fde0536178a0a2a0e0ba366dc231",
        "gas": "0x9821",
        "value": "0x0",
        "input": "0x307a80880000000000000000000000001e1d535a41515d3d2c29c1524c825236d67733e11859caa800000000000000000000000000000000000000000000000000000000",
        "nonce": "0x56",
        "chainId": "0xaa36a7"
      },
      "additionalContracts": [],
      "isFixedGasLimit": false
    },
    {
      "hash": "0x06cce337ead4ca32aaa0c50120ad8c9ccdeffa68991b0a549940c638ab1a6dcc",
      "transactionType": "CALL",
      "contractName": null,
      "contractAddress": "0x36c5a95abf732cd57a95f37b23348e79aa773016",
      "function": "addToPaidCallbackWhitelist(address,bytes4)",
      "arguments": [
        "0x1E1d535a41515D3D2c29C1524C825236D67733E1",
        "0xada10014"
      ],
      "transaction": {
        "from": "0x81f1e947811496453dbbaea0ac2c250e056bbd96",
        "to": "0x36c5a95abf732cd57a95f37b23348e79aa773016",
        "gas": "0x103e0",
        "value": "0x0",
        "input": "0xcbe5a9af0000000000000000000000001e1d535a41515d3d2c29c1524c825236d67733e1ada1001400000000000000000000000000000000000000000000000000000000",
        "nonce": "0x57",
        "chainId": "0xaa36a7"
      },
      "additionalContracts": [],
      "isFixedGasLimit": false
    }
  ],
  "receipts": [
    {
      "status": "0x1",
      "cumulativeGasUsed": "0x8a0a53",
      "logs": [
        {
          "address": "0xf1735d81d174fde0536178a0a2a0e0ba366dc231",
          "topics": [
            "0x177c467a5dec0610cb3afa435a1f7efa9cd39bf81ff2273f06ae7668a00e310b",
            "0x0000000000000000000000001e1d535a41515d3d2c29c1524c825236d67733e1",
            "0x1859caa800000000000000000000000000000000000000000000000000000000"
          ],
          "data": "0x",
          "blockHash": "0xeccd6e8299ad1de6630337c2cb8b79ba3e20ea774fad744630a9f139ccd9a2c6",
          "blockNumber": "0x929c2e",
          "blockTimestamp": "0x69136a40",
          "transactionHash": "0x0eb70d65a1eb7fd28cf47e4867c16690da1a4e501380e9ca51f9b62183596f3b",
          "transactionIndex": "0x46",
          "logIndex": "0x65",
          "removed": false
        }
      ],
      "logsBloom": "0x00000000000000000000000000100000000000000000000000000000000000000000000000000000000000000000000000000000000000000000000000000000000000000000000200000000000000040000008000000000000000000000000000000000000400000000000000010000000000000000000000000000000000000020000000000000000000000000004000000000000000000000000000400000000000000000000000000000000000000000000000000000000000000000000000000000000200000000000000000000000000000000000000000000000000000000000000000000000000000000000100000004000000000000000000000000",
      "type": "0x2",
      "transactionHash": "0x0eb70d65a1eb7fd28cf47e4867c16690da1a4e501380e9ca51f9b62183596f3b",
      "transactionIndex": "0x46",
      "blockHash": "0xeccd6e8299ad1de6630337c2cb8b79ba3e20ea774fad744630a9f139ccd9a2c6",
      "blockNumber": "0x929c2e",
      "gasUsed": "0x6e24",
      "effectiveGasPrice": "0xf424a",
      "from": "0x81f1e947811496453dbbaea0ac2c250e056bbd96",
      "to": "0xf1735d81d174fde0536178a0a2a0e0ba366dc231",
      "contractAddress": null
    },
    {
      "status": "0x1",
      "cumulativeGasUsed": "0x8ac679",
      "logs": [
        {
          "address": "0x36c5a95abf732cd57a95f37b23348e79aa773016",
          "topics": [
            "0x177c467a5dec0610cb3afa435a1f7efa9cd39bf81ff2273f06ae7668a00e310b",
            "0x0000000000000000000000001e1d535a41515d3d2c29c1524c825236d67733e1",
            "0xada1001400000000000000000000000000000000000000000000000000000000"
          ],
          "data": "0x",
          "blockHash": "0xeccd6e8299ad1de6630337c2cb8b79ba3e20ea774fad744630a9f139ccd9a2c6",
          "blockNumber": "0x929c2e",
          "blockTimestamp": "0x69136a40",
          "transactionHash": "0x06cce337ead4ca32aaa0c50120ad8c9ccdeffa68991b0a549940c638ab1a6dcc",
          "transactionIndex": "0x47",
          "logIndex": "0x66",
          "removed": false
        }
      ],
      "logsBloom": "0x00080000000000000000000000100000000000000000000000000000000000000000000000000000000000000000000000000000000000020000000000000000000000000000000000000000000000000000000000000000000000000000000000000000000400000000000000000000000000000000000000000000000000000020000000000000000000000000004000000000000000000000000000000000000000000000000000000000000000000000000000000000000000000000000000000000000200000000000000000000000000000000000000000000000000000000000000010000000000000000200000000004000000000000080000000000",
      "type": "0x2",
      "transactionHash": "0x06cce337ead4ca32aaa0c50120ad8c9ccdeffa68991b0a549940c638ab1a6dcc",
      "transactionIndex": "0x47",
      "blockHash": "0xeccd6e8299ad1de6630337c2cb8b79ba3e20ea774fad744630a9f139ccd9a2c6",
      "blockNumber": "0x929c2e",
      "gasUsed": "0xbc26",
      "effectiveGasPrice": "0xf424a",
      "from": "0x81f1e947811496453dbbaea0ac2c250e056bbd96",
      "to": "0x36c5a95abf732cd57a95f37b23348e79aa773016",
      "contractAddress": null
    }
  ],
  "libraries": [],
  "pending": [],
  "returns": {},
  "timestamp": 1762880065,
  "chain": 11155111,
  "commit": "c652f67"
}